:1005570001161E01221E01170C0A18C0F9A4B09932
:0F0567009282F88090080E804020100804020154
:10000E00E5097018852026851A27851C288518294C
:10001E0085192A85182B851A2C851A2DE509640158
:10002E007066E51675F00A120535AFF074182FF8E4
:10003E00E6F526E51675F00A1205352418F8E6F5EC
:10004E0027E50C44BFFFF528E52275F00A120535A9
:10005E00AEF074182EF8E6F529E52275F00A1205B1
:10006E00352418F8E6F52A8F2BE51775F00A1205D8
:10007E0035AFF074182FF8E6F52CE51775F00A1267
:10008E0005352418F8E6F52DE50964027067E516C6
:10009E0075F00A120535AFF074182FF8E6F526E55F
:1000AE001675F00A1205352418F8E6F5277528BFDF
:1000BE00E52275F00A120535AFF074182FF8E6F543
:1000CE0029E52275F00A1205352418F8E6F52A7589
:1000DE002BBFE51775F00A120535AFF074182FF81F
:1000EE00E6450CF52CE51775F00A1205352418F8BF
:1000FE00E6450CF52DE50964037067E51675F00A03
:10010E00120535AFF074182FF8E6F526E51675F0E2
:10011E000A1205352418F8E6F5277528BFE522756D
:10012E00F00A120535AFF074182FF8E6450CF529D4
:10013E00E52275F00A1205352418F8E6450CF52A65
:10014E00752BBFE51775F00A120535AFF074182F31
:10015E00F8E6F52CE51775F00A1205352418F8E6C1
:10016E00F52DE50964047067E51675F00A1205357C
:10017E00AFF074182FF8E6450CF526E51675F00A63
:10018E001205352418F8E6450CF5277528BFE5222B
:10019E0075F00A120535AFF074182FF8E6F529E55B
:1001AE002275F00A1205352418F8E6F52A752BBFCC
:1001BE00E51775F00A120535AFF074182FF8E6F54D
:1001CE002CE51775F00A1205352418F8E6F52DE51D
:1001DE00096405704EE50D75F00A120535AFF07421
:1001EE00182FF8E6F526E50D75F00A1205352418D8
:1001FE00F8E6F5277528BFE50B75F00A120535AF41
:10020E00F074182FF8E6450CF529E50B75F00A1277
:10021E0005352418F8E6450CF52A752BBF752CFF0D
:10022E00752DFFE5096406704EE50D75F00A120591
:10023E0035AFF074182FF8E6450CF526E50D75F080
:10024E000A1205352418F8E6450CF5277528BFE582
:10025E000B75F00A120535AFF074182FF8E6F52974
:10026E00E50B75F00A1205352418F8E6F52A752BFC
:08027E00BF752CFF752DFF2256
:1002860075A0EFE5A0B4EE0C0509E509C394074097
:1002960003750902E5A064EE60FAE5A064ED705FFF
:1002A600E509B4020E0517C3E51764809498400368
:1002B600E4F517E509B4030E0522C3E5226480942C
:1002C600BC4003E4F522E509B4040E0516C3E516A1
:1002D600648094BC4003E4F516E509B4050E050BED
:1002E600C3E50B648094984003E4F50BE509B40676
:1002F6000E050DC3E50D648094BC4003E4F50DE5E1
:10030600A064ED60FAE5A064ED705FE509B4020E45
:100316000517C3E517648094984003751717E50918
:10032600B4030E0522C3E522648094BC4003752203
:100336003BE509B4040E0516C3E516648094BC407B
:100346000375163BE509B4050E050BC3E50B648082
:1003560094984003750B17E509B4060E050DC3E521
:100366000D648094BC4003750D17E5A064ED60FA3A
:10037600E5A064EB705FE509B4020E1517D3E51727
:10038600648094805003E4F517E509B4030E152242
:10039600D3E522648094805003E4F522E509B40491
:1003A6000E1516D3E516648094805003E4F516E521
:1003B60009B4050E150BD3E50B648094805003E455
:1003C600F50BE509B4060E150DD3E50D6480948092
:1003D6005003E4F50DE5A064EB60FAE5A0B4E7038D
:0A03E600750901E5A064E760FA2242
:03000B0002047C70
:10047C00C0E0C0D075D000C000758CF8758A30050E
:10048C0025E52570020524C394FAE5249400400B5D
:10049C007524007525000523630CFFE523C3940226
:1004AC0040077523000516050AC3E516648094BC45
:1004BC0040057516000522C3E522648094BC4005F6
:1004CC007522000517C3E5176480949840037517CF
:1004DC00007580FF740E2508F8E6F580D290C29066
:1004EC0074262508F8E6F5800508E508C39408404D
:0B04FC0003750800D000D0D0D0E03223
:10057700758901758CF8758A30D2AFD2A9D28C22D1
:10050700120577E4F50912000EE50AD3940240F9C3
:10051700750901E4F50A12000E120286E50BB517FC
:0E05270009E50DB52204C29780ECD29780E85A
:030000000203F008
:0C03F000787FE4F6D8FD75812D020437FB
:10053500C2D530F707B2D563F0FF05F030E70CB24E
:10054500D5F4048463F0FF05F080018430D502F40E
:0205550004227E
:1003FC00020507E493A3F8E493A34003F68001F20B
:10040C0008DFF48029E493A3F85407240CC8C33301
:10041C00C4540F4420C8834004F456800146F6DFD0
:10042C00E4800B0102040810204080900557E47E04
:10043C00019360BCA3FF543F30E509541FFEE493C5
:10044C00A360010ECF54C025E060A840B8E493A38C
:10045C00FAE493A3F8E493A3C8C582C8CAC583CAB7
:10046C00F0A3C8C582C8CAC583CADFE9DEE780BE6F
:010576000084
:00000001FF
